:100000007FC000009BC0000099C0000097C00000A6
:1000100095C0000093C0000091C000008FC0000098
:100020008DC000008BC000000C942D0887C000001C
:1000300085C0000083C0000081C000007FC00000B8
:100040007DC000007BC0000079C0000077C00000C8
:10005000A2C0000073C0000071C000006FC00000AB
:100060006DC000006BC0000069C0000067C00000E8
:1000700065C0000063C0000061C000005FC00000F8
:100080005DC000005BC0000059C0000057C0000008
:1000900055C0000053C000002111120100020900E8
:1000A0000108AAAACCCC0001000000010902190035
:1000B000010100E032090400000109000000070509
:1000C000810301000C092906A900326400FF120116
:1000D0000002000000084C05EB02000000000001D7
:1000E0000902200001000080010904000002FF0055
:1000F0000000070502020800000705810208000051
:1001000011241FBECFEFD0E2DEBFCDBF11E0A0E0D3
:10011000B1E0E4E7F7E100E00BBF02C007900D9209
:10012000A835B107D9F712E0A8E5B1E001C01D92EA
:10013000A335B107E1F76BD10C94B80B61CFE09117
:100140002701FF27E7FDF095E05EFE4F8F77808364
:10015000E3EEF0E080838081806880830895909151
:1001600027019817B9F080932701992787FD90956B
:10017000FC01E05EFE4F208127FD1082805E9E4FD5
:10018000FC0180818F778093E3008091E300806899
:100190008093E30008951F920F920FB60F921124DF
:1001A0008F938BEF809385008EE180938400809104
:1001B0006B01882329F080916B01815080936B0142
:1001C0008F910F900FBE0F901F9018958FEF90E7B3
:1001D000A2E081509040A040E1F700C000008FEF06
:1001E00090E7A2E081509040A040E1F700C00000FD
:1001F000EDCF81E08093E9008091E80085FF1AC08F
:10020000809165018823B1F080916601882339F0DF
:100210008091EB0088608093EB00109266018091E2
:1002200065018093F1008091E8008E778093E8006B
:1002300010926501089582E08093E9008091E800C2
:1002400085FF49C08091AE019091AF0184599E4FC6
:1002500068E070E040E050E00E949F0A8091E80072
:100260008B778093E8008091AE019091AF01089662
:100270009093AF018093AE018034910564F1809139
:100280006D01815080936D0180916F018F5F80932C
:100290006F01809172018F5F8093720183E791E01B
:1002A00064E1DFD50E94A50BDED581E28093730166
:1002B00081E180937401E0EFF1E0A5E7B1E0819185
:1002C0008D9382E0E430F807D1F785E080936401F4
:1002D00082E380936B0181E08093E9008091E800E4
:1002E00085FF2EC080916401853051F580916B01AE
:1002F000882331F58091AC019091AD018034910556
:10030000FCF484599E4F68E070E040E050E00E94A9
:10031000580A8091E8008E778093E8008091AC01C4
:100320009091AD0108969093AD018093AC0180341B
:10033000910534F086E08093640182E380936B0141
:10034000089510926A011092690121E030E0A9013C
:10035000082E02C0440F551F0A94E2F7409365012E
:100360000197880F991FFC01EC5EFE4F43E051E0BE
:1003700051834083885A9E4FFC0131832083089526
:10038000109268011092670121E030E0A901082E67
:1003900002C0440F551F0A94E2F74093650101978C
:1003A000880F991FFC01EC5EFE4F40E051E0518345
:1003B0004083885A9E4FFC0131832083089584B77F
:1003C000877F84BF88E10FB6F89480936000109215
:1003D00060000FBE81E090E80FB6F8949093610042
:1003E000809361000FBE93E09093810080936F0033
:1003F0001ED611B814B817B81AB81DB810BA12B86A
:1004000015B818B81BB81EB811BA78940895DF92C1
:10041000EF92FF920F931F93D2DF80E091E064E1AF
:1004200000D51092640180E09ADEE3E0DE2E74E0F5
:10043000E72E67E0F62E08E014E18091270188237B
:1004400009F4D7DE80912701853009F4F4DE0E949B
:10045000A50B80916401823049F480916B0188235F
:1004600029F485E090E06DDFD09264018091640111
:10047000833059F48091690190916A01853091052A
:1004800021F485E06CDEE0926401809164018630A5
:1004900051F480916B01882331F461DE85E090E0B6
:1004A0006FDFF092640180916401873059F480918C
:1004B0006701909168018530910521F400936401F2
:1004C00010936B0180916401883009F0B6CF809160
:1004D0006B01882309F0B1CF80E090E01F910F916C
:1004E000FF90EF90DF9008959230A9F0993239F1A2
:1004F000913049F520912701263028F5332727FD33
:100500003095220F331FF901E85DFE4F8081918104
:100510002C5C3E4F10C0209127012630A0F43327D9
:1005200027FD3095220F331FF901E05CFE4F8081DB
:100530009181245B3E4FF901208131810DC0809172
:100540002701882329F020E030E080E090E004C01B
:1005500029E030E085EC90E0FA0191838083C901C5
:100560000895089508951F9380912701853059F4C7
:1005700080914C028B3009F006C18091E800877FA2
:100580008093E8002FC0882309F0FDC080914B02C2
:10059000803A79F580914C02882309F0F4C080916B
:1005A0004D0290914E02009709F0EDC080914F02EC
:1005B00090915002009709F0E6C08091510290910D
:1005C00052028430910509F0DEC08091E800877FF7
:1005D0008093E8001092F1001092F1001092F10067
:1005E0001092F1008091E8008E778093E8007FD42C
:1005F000CFC0833AB9F580914C02882309F0C3C07B
:1006000080914D0290914E02009709F0BCC08091FC
:100610005102909152028430910509F0B4C080914A
:100620004F02982F9150963008F0B2C09091E80098
:10063000977F9093E80090E00197880F991FFC0145
:10064000EC5EFE4F308121813093F1002093F10068
:10065000FC01E85AFE4F908181819093F1008093D4
:10066000F100C0CF833209F08EC080914C028330FC
:1006700009F046C08091510290915202009709F012
:1006800082C010914F02812F8150863008F080C0C7
:100690008091E800877F8093E8008091E8008E7762
:1006A0008093E80024D480914D0290914E028430D2
:1006B000910599F08830910509F06AC0163009F06B
:1006C00067C080916401882309F062C082E0809352
:1006D00064018FE080936B015BC0E12FF0E081E06B
:1006E00090E002C0880F991F1A95E2F78093650188
:1006F000EE0FFF1FEA5AFE4F80819181806140C05A
:10070000813009F040C080915102909152020097CF
:10071000D1F510914F02812F81508630C8F580911C
:10072000E800877F8093E8008091E8008E778093CF
:10073000E800DDD380914D0290914E028031910509
:1007400021F08431910521F50EC0E12FF0E0F09306
:100750006801E0936701EE0FFF1FEA5AFE4F8081A8
:1007600091818E7F0DC0E12FF0E0F0936A01E0935C
:100770006901EE0FFF1FEA5AFE4F808191818F7E43
:100780009183808305C080E490E060E070E01EDD2E
:100790001F91089581E061EC42E096D3882329F40B
:1007A00080E090E060E470E011DD82E060EC42E027
:1007B0008BD3882329F480E090E060E470E006CDDC
:1007C000089508950895089508952F923F924F92A5
:1007D0005F926F927F928F929F92AF92BF92CF92D1
:1007E000DF92EF92FF920F931F93DF93CF93CDB7DA
:1007F000DEB7A2970FB6F894DEBF0FBECDBFE09074
:10080000F001F090F1010091F2011091F301EB86FB
:10081000FC860D871E870091F4011091F50120914F
:10082000F6013091F7010F87188B298B3A8B2091B5
:10083000F8013091F9014091FA015091FB012B8BA5
:100840003C8B4D8B5E8B8091FC019091FD01A091C2
:10085000FE01B091FF018F8B988FA98FBA8FE09026
:100860000002F09001020091020210910302EB8E4F
:10087000FC8E0D8F1E8FEF8EF8A209A31AA31C0108
:100880002D0139014A01AF84B888C988DA880B85FF
:100890001C852D853E850B831C832D833E8360E064
:1008A00070E010C02F8E38A249A25AA21301240171
:1008B00035014601AB80BC80CD80DE802B833C833C
:1008C0004D835E836431D0F4D201C1018625972522
:1008D000A825B9258A219B21AC21BD2182259325FC
:1008E000A425B525603108F050C029E939E742E870
:1008F0005AE52F83388749875A87B4C0683298F4FD
:10090000D401C3018A259B25AC25BD2582259325CD
:10091000A425B52521EAE22E2BEEF22E29ED022F99
:100920002EE6122F3AC06C33E8F4D401C3018A29B1
:100930009B29AC29BD2982219321A421B521A401A1
:1009400093012A213B214C215D21822B932BA42B47
:10095000B52B0CED1CEB2BE13FE80F8318872987A3
:100960003A871FC0D401C3018A259B25AC25BD252C
:1009700082259325A425B52526ED31EC42E65AECD7
:100980002F83388749875A870CC0F9E9EF2EF9E79A
:10099000FF2EF2E80F2FFAE51F2FEF82F886098766
:1009A0001A878B010F701070000F111F000F111F9D
:1009B00000551E4F1A8309839B01235F3F4F2F7001
:1009C0003070220F331F220F331F20553E4F8B01F3
:1009D000085F1F4F0F701070000F111F000F111FC5
:1009E00000551E4FF9012081318142815381F80168
:1009F000E080F180028113812E253F254027512779
:100A0000E981FA81E080F180028113812E253F2562
:100A100040275127FB013296EF70F070EE0FFF1F59
:100A2000EE0FFF1FE055FE4FE080F1800281138141
:100A30002E253F254027512779018A01EE0CFF1C06
:100A4000001F111F222757FD2395332744275527C1
:100A5000E22AF32A042B152BE981FA81E082F18244
:100A6000028313832B813C814D815E81F5E0220F4F
:100A7000331F441F551FFA95D1F7EB80FC800D8181
:100A80001E81EBE116950795F794E794EA95D1F767
:100A90002E293F29402B512BEF8CF8A009A11AA138
:100AA0002E0D3F1D401F511FFB01EF70F070EE0F28
:100AB000FF1FEE0FFF1FE055FE4FE080F180028127
:100AC00013812E0D3F1D401F511F280F391F4A1F34
:100AD0005B1F8F819885A985BA85280F391F4A1F0A
:100AE0005B1FD601C501FEE1880F991FAA1FBB1F1E
:100AF000FA95D1F7E2E0D694C794B794A794EA9513
:100B0000D1F7A82AB92ACA2ADB2A6F5F7F4F60353E
:100B1000710509F0C7CEEB84FC840D851E852E0D72
:100B20003F1D401F511F2093F0013093F10140936E
:100B3000F2015093F3018B819C81AD81BE810F85C1
:100B4000188929893A89800F911FA21FB31F8093AA
:100B5000F4019093F501A093F601B093F7012B896E
:100B60003C894D895E89A20EB31EC41ED51EA0927B
:100B7000F801B092F901C092FA01D092FB018F897D
:100B8000988DA98DBA8D680E791E8A1E9B1E609263
:100B9000FC017092FD018092FE019092FF01EB8CAE
:100BA000FC8C0D8D1E8D2E0C3F1C401E511E209264
:100BB0000002309201024092020250920302A29679
:100BC0000FB6F894DEBF0FBECDBFCF91DF911F915E
:100BD0000F91FF90EF90DF90CF90BF90AF909F90DC
:100BE0008F907F906F905F904F903F902F900895DF
:100BF00081E093E2A5E4B7E68093F0019093F101E0
:100C0000A093F201B093F30189E89BEAADECBFEE4B
:100C10008093F4019093F501A093F601B093F7014E
:100C20008EEF9CEDAAEBB8E98093F8019093F9015F
:100C3000A093FA01B093FB0186E794E5A2E3B0E14B
:100C40008093FC019093FD01A093FE01B093FF01FE
:100C500080EF91EEA2EDB3EC80930002909301023D
:100C6000A0930202B09303021092050210920402B4
:100C70000895EF92FF920F931F93DF93CF930F92FC
:100C8000CDB7DEB7762F76957695272F0EC0A22F9B
:100C9000B0E0AA0FBB1FAA0FBB1FA055BE4F1D92ED
:100CA0001D921D921C9213972F5F203180F320E03C
:100CB00017C0422F50E0DA01A055BE4F480F591F10
:100CC000FA0133813C93328111963C931197318123
:100CD00012963C931297308113963C9313972C5F96
:100CE000261738F3062F10E0E0900402F09005027A
:100CF000E00EF11EF0920502E0920402603408F06A
:100D000052C0E72FF0E00095109503701070EE0FC1
:100D1000FF1FEE0FFF1FE055FE4F98012F5F3F4F63
:100D200073E0220F331F7A95E1F78FEF9FEFDC011D
:100D300004C0880F991FAA1FBB1F2A95D2F72081D4
:100D400031814281538182239323A423B52353E02D
:100D5000000F111F5A95E1F720E830E040E050E025
:100D600004C0220F331F441F551F0A95D2F7822B50
:100D7000932BA42BB52B80839183A283B3836833F9
:100D800090F4C701A0E0B0E043E0880F991FAA1FCC
:100D9000BB1F4A95D1F78093EC019093ED01A0938E
:100DA000EE01B093EF01698310DD6981685368300B
:100DB00000F5E0EBF1E0119211921192119281E0B5
:100DC000EC3EF807C1F78091040290910502A0E083
:100DD000B0E033E0880F991FAA1FBB1F3A95D1F7E7
:100DE0008093EC019093ED01A093EE01B093EF019D
:100DF000ECDC0F90CF91DF911F910F91FF90EF905E
:100E00000895E0EFF1E08081938190838383818175
:100E1000928191838283349682E0E430F80799F7D7
:100E20000895282F392FD901E6E0F2E0862F90E0CF
:100E30008E0F9F1F36E303C02D9123272193E817C0
:100E4000F907D1F786E306C0E62FF0E0EA5FFD4F31
:100E500080836F5F6034C0F3CBDE86E092E060E4B5
:100E600008CF07CF0895DF93CF93CDB7DEB7649750
:100E70000FB6F894DEBF0FBECDBFC3DFDE01119603
:100E8000E0EFF1E084E101900D928150E1F7E6E0BE
:100E9000F2E09AE680818927819382E0E634F807C0
:100EA000C9F7A6DE86E092E060E4E3DECE010196BB
:100EB00064E1DFDEA6DF64960FB6F894DEBF0FBEF6
:100EC000CDBFCF91DF9108958093E900EBEEF0E084
:100ED000808181608083EDEEF0E010826093EC0011
:100EE00040838091EE00881F8827881F0895809195
:100EF0004B0287FF13C004C080914A028823B9F0D7
:100F00008091E80082FFF8CF8091E8008B77809392
:100F1000E800089580914A02882349F08091E80012
:100F200080FFF8CF8091E8008E778093E8000895E5
:100F30008091E4009091E50044E62091EC0020FFD0
:100F400005C02091E80020FF05C01AC02091E800EC
:100F500022FD16C020914A022223A1F02530A1F0E3
:100F60002091EB0025FD12C02091E4003091E500B6
:100F70002817390711F3442359F04150C901DDCF37
:100F800080E0089582E0089583E0089581E0089567
:100F900084E0089555D05CD08091D800982F9F7739
:100FA0009093D80080688093D80084E189BD89B58A
:100FB000826089BD09B400FEFDCF8091D8008F7D8D
:100FC0008093D8008091D70080688093D7001092DA
:100FD0004A021092480210924702109246028091F3
:100FE000E0008B7F8093E0008091D8008160809347
:100FF000D80080E060E042E067DF8091E1008E7F12
:101000008093E1008091E20081608093E200809112
:10101000E20088608093E2008091E0008E7F809300
:10102000E0008091D80080618093D8000895E7EDBA
:10103000F0E080818160808381E080934902AACFC3
:10104000E8EDF0E080818C7F80831092E2000895CB
:101050001092DA001092E10008951F920F920FB6DD
:101060000F920BB60F9211242F933F934F935F93E0
:101070006F937F938F939F93AF93BF93EF93FF9360
:101080008091DA0080FF15C08091D80080FF11C0E8
:101090008091DA008E7F8093DA008091D90080FF02
:1010A00005C081E080934A025CDA03C010924A02D4
:1010B00059DA8091E10080FF1DC08091E20080FF3D
:1010C00019C08091E1008E7F8093E1008091E20061
:1010D0008E7F8093E2008091E20080618093E20045
:1010E0008091D80080628093D80019BC85E08093FD
:1010F0004A0267DB8091E10084FF2EC08091E2000C
:1011000084FF2AC084E189BD89B5826089BD09B4A4
:1011100000FEFDCF8091D8008F7D8093D800809114
:10112000E1008F7E8093E1008091E2008F7E8093CA
:10113000E2008091E20081608093E20080914802A9
:10114000882321F48091E30087FF02C084E001C07E
:1011500081E080934A0236DB8091E10083FF22C068
:101160008091E20083FF1EC08091E100877F809321
:10117000E10082E080934A02109248028091E100EF
:101180008E7F8093E1008091E2008E7F8093E20069
:101190008091E20080618093E20080E060E042E0C4
:1011A00093DE11DB8091E10082FF0AC08091E200B2
:1011B00082FF06C08091E1008B7F8093E10004DB19
:1011C000FF91EF91BF91AF919F918F917F916F911F
:1011D0005F914F913F912F910F900BBE0F900FBEDB
:1011E0000F901F9018951F93DF93CF93CDB7DEB765
:1011F000AD970FB6F894DEBF0FBECDBFEBE4F2E0C3
:101200008091F100819322E0E335F207C9F78091E4
:101210004B0220914C02253009F484C0263040F462
:101220002130A1F1213070F0233009F028C12EC007
:10123000283009F4E7C0293009F4F7C0263009F056
:101240001EC18FC0803821F0823809F018C106C055
:1012500080914702882379F481E00EC080914F028B
:1012600087708093E9009091EB0081E095FF80E02A
:101270001092E90001C083E09091E800977F90937D
:10128000E8008093F1001092F100C8C0882319F0A3
:10129000823009F0F4C090E08F719070009729F0CF
:1012A0008230910509F0ECC00BC080914D02813075
:1012B00009F0E6C0233009F080E0809347022CC09B
:1012C00080914D02882341F520914F02277009F447
:1012D000D7C02093E9008091EB0080FF1DC0809172
:1012E0004C02833021F48091EB00806213C0809126
:1012F000EB0080618093EB0081E090E002C0880FFA
:10130000991F2A95E2F78093EA001092EA008091F3
:10131000EB0088608093EB001092E9008091E80078
:10132000877F7FC0882309F0AAC080914D028F7704
:101330001FB7F8949091E800977F9093E8008DA7ED
:10134000D6DD8DA59091E80090FFFCCF882311F0A9
:1013500093E001C092E090934A020E949F001FBF59
:101360008FC080914D0290914E0223E08C3D9207F8
:1013700089F583E08C838AE28B833FB7F894DE01A2
:10138000159680E090E02EE041E2E22FF0E04093FD
:101390005700E49180FF03C0E295EF702F5FEF707C
:1013A0005E2F505D5A3308F0595F5C9311961C9282
:1013B0001197129601968431910539F73FBF8091BC
:1013C000E800877F8093E800CE0103966AE270E030
:1013D000FDD012C060914F02AE014F5F5F4F84D8C5
:1013E000BC01009709F44CC08091E800877F80938E
:1013F000E80089819A8148D18091E8008B778093B9
:10140000E8003EC0803809F03AC08091E800877F4C
:101410008093E800809148028093F1008091E80079
:101420008E778093E80063DD2BC0882341F580E050
:1014300091E060E0AE014F5F5F4F56D8009701F139
:10144000E981FA817196E49190914D02E917C0F01B
:101450008091E800877F8093E8009093480247DD01
:1014600080914802882321F48091E30087FF02C025
:1014700084E001C081E080934A028CD901C073D816
:101480008091E80083FF0AC08091EB008062809326
:10149000EB008091E800877F8093E800AD960FB65F
:1014A000F894DEBF0FBECDBFCF91DF911F9108959D
:1014B000AF92BF92DF92EF92FF920F931F93DF9351
:1014C000CF930F92CDB7DEB7082F5B017A019983D6
:1014D0002FDDD82E9981882331F5192F1CC08091DA
:1014E000E80085FD10C08091E8008E778093E800C9
:1014F000E114F10421F0F7010995813081F018DD44
:10150000882349F00FC0F80181918F018093F10089
:101510000894A108B108A114B10409F704C095E02A
:10152000D92E01C0D82E8D2D0F90CF91DF911F9114
:101530000F91FF90EF90DF90BF90AF900895AF9222
:10154000BF92DF92EF92FF920F931F93DF93CF939F
:101550000F92CDB7DEB7082F5B017A019983E8DCE3
:10156000D82E9981882331F5192F1CC08091E8006D
:1015700085FD10C08091E8008B778093E800E1142E
:10158000F10421F0F7010995813081F0D1DC882345
:1015900049F00FC08091F100F80181938F01089408
:1015A000A108B108A114B10409F704C075E0D72E51
:1015B00001C0D82E8D2D0F90CF91DF911F910F91EB
:1015C000FF90EF90DF90BF90AF900895282F392FB4
:1015D000F90180915102909152028617970718F4F1
:1015E000BC0120E037C061157105D9F78091E80092
:1015F0008E778093E800F5CF80914A02882309F422
:101600003FC08530C9F18091E80083FD37C08091EB
:10161000E80082FD2BC08091E80080FF1BC0809114
:10162000F2009091F30006C021912093F1006150E7
:10163000704001966115710519F088309105A0F38D
:1016400021E08830910509F020E08091E8008E7754
:101650008093E8006115710579F6222369F606C0CA
:1016600080914A02882361F0853061F08091E80022
:1016700082FFF6CF80E0089583E0089581E0089529
:1016800082E0089583E00895282F392F8091510238
:10169000909152028617970718F4BC0140E03BC0B6
:1016A00061157105D9F78091E8008E778093E80085
:1016B000F5CF80914A02882309F443C0853009F4AC
:1016C0003CC08091E80083FD3AC08091E80082FD33
:1016D0002EC08091E80080FF1EC08091F2009091A2
:1016E000F30009C0F9012F5F3F4FE491E093F1004F
:1016F0006150704001966115710519F088309105AF
:1017000088F341E08830910509F040E08091E800DD
:101710008E778093E8006115710559F6442349F6E8
:1017200006C080914A02882361F0853061F0809183
:10173000E80082FFF6CF80E0089583E0089581E01D
:10174000089582E0089583E008951F9380914A02EE
:10175000882361F01091E90017701092E9008091E0
:10176000E80083FF01C03FDD1093E9001F91089559
:04177000F894FFCF1B
:10177400CEE6FB8ACA3E7E215CCF6DACF2F9459D74
:101784003913D057000100010001000100010001DC
:10179400FFFFFFFFFFFFFFFF9A00000000000000B3
:1017A4000000CE0012000000000000000000120043
:1017B400AC000000000000000000E0001900000080
:0817C4000000000000002000FD
:00000001FF
